:1000000071C000008FC000008DC000008BC00000D8
:1000100089C0000084C1000055C1000083C00000F9
:1000200081C000007FC000007DC000007BC00000D8
:1000300079C0000077C0000075C0000073C00000E8
:1000400071C000006FC000006DC000006BC00000F8
:1000500069C0000067C0000065C0000063C0000008
:1000600061C0000053C600005DC000005BC000001E
:1000700059C0000057C0000055C0000053C0000028
:1000800051C000004FC000004DC000004BC0000038
:1000900049C0000047C0000045C0000043C0000048
:1000A00041C000003FC000003DC000003BC0000058
:1000B00039C0000037C0000035C0000033C0000068
:1000C00031C000002FC000002DC000002BC0000078
:1000D00029C0000027C0000025C0000023C0000088
:1000E00021C0000011241FBECFEFD1E2DEBFCDBF83
:1000F00000E00CBF12E0A0E0B2E0E2E8F1E100E0D5
:100100000BBF02C007900D92A030B107D9F722E0D3
:10011000A0E0B2E001C01D92AC30B207E1F778D6A2
:100120000C94BF086DCFCF93DF93CDB7DEB781E2DC
:1001300090E021E230E0F90120812F60FC01208372
:1001400082E290E022E230E0F9012081207FFC0190
:1001500020838AE091E02AE031E0F90120812861E2
:10016000FC0120838BE091E02BE031E0F90120815C
:100170002861FC012083DF91CF910895CF93DF9315
:10018000CDB7DEB78DE290E02DE230E0F9012081BD
:100190002F7EFC0120838EE290E02EE230E0F90118
:1001A00020812061FC012083DF91CF910895CF93BE
:1001B000DF93CDB7DEB78DE290E02DE230E0F901BC
:1001C00020812F7DFC0120838EE290E02EE230E042
:1001D000F90120812062FC012083DF91CF910895F5
:1001E000CF93DF93CDB7DEB787E290E027E230E030
:1001F000F9012081276FFC01208388E290E028E24A
:1002000030E0F90120812078FC012083DF91CF913B
:100210000895CF93DF93CDB7DEB780E390E0FC0184
:10022000108281E390E0FC01108287E091E0FC0104
:10023000108288E091E0FC011082DF91CF91089557
:10024000CF93DF93CDB7DEB76EDF98DFB0DFC8DFC7
:10025000E0DFDF91CF910895CF93DF93CDB7DEB785
:10026000F8948AE690E02AE630E0F90120812260E5
:10027000FC0120838DE390E02DE330E0F901208143
:100280002061FC0120837894DF91CF910895CF9372
:10029000DF93CDB7DEB7F8948AE690E02AE630E047
:1002A000F90120812860FC0120838DE390E02DE39B
:1002B00030E0F90120812062FC0120837894DF91F5
:1002C000CF9108951F920F9200905F000F9211241A
:1002D0008F939F93AF93BF93CF93DF93CDB7DEB749
:1002E0008091040290910502A0910602B09107024C
:1002F0000196A11DB11D8093040290930502A09365
:100300000602B0930702DF91CF91BF91AF919F9109
:100310008F910F9000925F000F901F9018951F9281
:100320000F9200905F000F9211248F939F93AF93D1
:10033000BF93CF93DF93CDB7DEB78091000290914A
:100340000102A0910202B09103020196A11DB11D0C
:100350008093000290930102A0930202B0930302E3
:10036000DF91CF91BF91AF919F918F910F900092AC
:100370005F000F901F901895CF93DF931F921F92ED
:10038000CDB7DEB78A8319828A818F708A8382E231
:1003900090E0FC01808189838981807F89839981B4
:1003A0008A81892B898382E290E02981FC01208364
:1003B0000F900F90DF91CF910895CF93DF93CDB73A
:1003C000DEB786E0D9DFDF91CF910895CF93DF9339
:1003D000CDB7DEB785E0D0DFDF91CF910895CF9321
:1003E000DF93CDB7DEB780E0C7DFDF91CF9108950F
:1003F000CF93DF93CDB7DEB72A970FB6F894DEBF61
:100400000FBECDBF9A87898719821A821B821C82F0
:100410001D821E821F82188689859A85CC01A0E0E4
:10042000B0E0BC01CD0192D5DC01CB0128E431EE76
:1004300042E850E4BC01CD01F5D4DC01CB01898355
:100440009A83AB83BC8369817A818B819C8152D5ED
:10045000DC01CB01CC01A0E0B0E08D839E83AF83B3
:10046000B8871092040210920502109206021092B0
:1004700007021092000210920102109202021092E2
:10048000030220910402309105024091060250912E
:10049000070271E08D819E81AF81B88528173907E9
:1004A0004A075B0708F470E02091000230910102D6
:1004B000409102025091030261E08D819E81AF81E3
:1004C000B885281739074A075B0708F460E0872FCB
:1004D000862B882309F001C0D4CF81DF2A960FB67E
:1004E000F894DEBF0FBECDBFDF91CF910895CF93BB
:1004F000DF93CDB7DEB72A970FB6F894DEBF0FBEF5
:10050000CDBF9A87898719821A821B821C821D821D
:100510001E821F82188689859A85CC01A0E0B0E0F2
:10052000BC01CD0113D5DC01CB0125EE30ED4AEA4B
:1005300050E4BC01CD0176D4DC01CB0189839A83E0
:10054000AB83BC8369817A818B819C81D3D4DC01AC
:10055000CB018D839E83AF83B887109204021092E3
:1005600005021092060210920702109200021092E9
:1005700001021092020210920302209104023091B3
:100580000502409106025091070271E08D819E8123
:10059000AF81B88582179307A407B50708F070E00C
:1005A0002091000230910102409102025091030219
:1005B00061E08D819E81AF81B88582179307A40782
:1005C000B50708F060E0872F862B882309F001C06B
:1005D000D4CF05DF2A960FB6F894DEBF0FBECDBF8D
:1005E000DF91CF910895CF93DF931F921F92CDB7E4
:1005F000DEB79A838983E1DE89819A8178DF0F9063
:100600000F90DF91CF910895CF93DF931F921F92A8
:10061000CDB7DEB79A838983D9DE89819A81E8DEF6
:100620000F900F90DF91CF910895CF93DF93CDB7C7
:10063000DEB781E291E0FC01108285E291E02FEFCC
:10064000FC01208384E291E021E0FC01208389E227
:1006500091E0FC01108288E291E02FEFFC01208301
:100660008BE291E0FC0110828AE291E02FEFFC0125
:1006700020838DE291E0FC0110828CE291E02FEF6B
:10068000FC01208380E291E029EAFC01208381E2E1
:1006900091E02BE0FC012083DF91CF910895CF936F
:1006A000DF93CDB7DEB781EC90E0FC01108280ECE7
:1006B00090E0FC01108282EC90E026E0FC012083B7
:1006C00084EC90E02FE5FC01208385EC90E0FC01B8
:1006D000108281EC90E028E9FC012083DF91CF912A
:1006E0000895CF93DF93CDB7DEB7EC970FB6F894AC
:1006F000DEBF0FBECDBF9CAF8BAF8BAD9CAD9A83E1
:10070000898389819A81059708F0EEC029813A8111
:100710004CEE4203C001439F900D11248C599F4F12
:100720009A83898389819A815EDF80E090E0AAE7DD
:10073000B4E48B839C83AD83BE8326E636E646E62F
:1007400055E46B817C818D819E81B6D4DC01CB0127
:100750008F839887A987BA8720E030E040E85FE37D
:100760006F81788589859A8559D388232CF481E017
:1007700090E09C878B873BC020E03FEF4FE757E43A
:100780006F81788589859A8593D418163CF520E089
:1007900030E040E251E46B817C818D819E818CD47C
:1007A000DC01CB01BC01CD01A5D3DC01CB019C87D1
:1007B0008B870FC080E791E09E878D878D859E8512
:1007C0000197F1F79E878D878B859C8501979C8784
:1007D0008B878B859C85892B69F713C06F81788502
:1007E00089859A8587D3DC01CB019C878B878B8594
:1007F0009C85988B8F878F8598890197F1F7988BC7
:100800008F878AE590E000DF80E090E0AAE7B4E41B
:10081000898B9A8BAB8BBC8B26E636E646E655E495
:1008200069897A898B899C8947D4DC01CB018D8BBE
:100830009E8BAF8BB88F20E030E040E85FE36D899E
:100840007E898F89988DEAD288232CF481E090E00C
:100850009A8F898F3BC020E03FEF4FE757E46D89C7
:100860007E898F89988D24D418163CF520E030E0DD
:1008700040E251E469897A898B899C891DD4DC0125
:10088000CB01BC01CD0136D3DC01CB019A8F898F1E
:100890000FC080E791E09C8F8B8F8B8D9C8D019793
:1008A000F1F79C8F8B8F898D9A8D01979A8F898F05
:1008B000898D9A8D892B69F713C06D897E898F89FF
:1008C000988D18D3DC01CB019A8F898F898D9A8DF1
:1008D0009E8F8D8F8D8D9E8D0197F1F79E8F8D8FC1
:1008E00080E590E080DEF5C029E030E089819A81E2
:1008F000A901481B590BCA019A83898329813A812E
:1009000044E1429FC001439F900D11249A83898343
:1009100089819A8168DE80E090E0AAE7B4E48F8F55
:1009200098A3A9A3BAA326E636E646E655E46F8D5A
:1009300078A189A19AA1C0D3DC01CB018BA39CA390
:10094000ADA3BEA320E030E040E85FE36BA17CA153
:100950008DA19EA163D288232CF481E090E098A71A
:100960008FA33BC020E03FEF4FE757E46BA17CA192
:100970008DA19EA19DD318163CF520E030E040E209
:1009800051E46F8D78A189A19AA196D3DC01CB01A6
:10099000BC01CD01AFD2DC01CB0198A78FA30FC062
:1009A00080E791E09AA789A789A59AA50197F1F711
:1009B0009AA789A78FA198A5019798A78FA38FA120
:1009C00098A5892B69F713C06BA17CA18DA19EA16D
:1009D00091D2DC01CB0198A78FA38FA198A59CA7EA
:1009E0008BA78BA59CA50197F1F79CA78BA78AE500
:1009F00090E00ADE80E090E0AAE7B4E48DA79EA72D
:100A0000AFA7B8AB26E636E646E655E46DA57EA56B
:100A10008FA598A951D3DC01CB0189AB9AABABABC5
:100A2000BCAB20E030E040E85FE369A97AA98BA97C
:100A30009CA9F4D188232CF481E090E09EAB8DAB8F
:100A40003BC020E03FEF4FE757E469A97AA98BA9A3
:100A50009CA92ED318163CF520E030E040E251E48A
:100A60006DA57EA58FA598A927D3DC01CB01BC017C
:100A7000CD0140D2DC01CB019EAB8DAB0FC080E736
:100A800091E098AF8FAB8FA998AD0197F1F798AF30
:100A90008FAB8DA99EA901979EAB8DAB8DA99EA909
:100AA000892B69F713C069A97AA98BA99CA922D2BD
:100AB000DC01CB019EAB8DAB8DA99EA99AAF89AF0E
:100AC00089AD9AAD0197F1F79AAF89AF8EE690E0C4
:100AD0008ADDEC960FB6F894DEBF0FBECDBFDF9176
:100AE000CF910895CF93DF93CDB7DEB7A0970FB620
:100AF000F894DEBF0FBECDBF98A38F8F8F8D98A1C6
:100B00009A8389838F8D98A1059720F48EE190E0D8
:100B10006ADD08C086E490E066DD8F8D98A10497B9
:100B200098A38F8F80E090E0AAE7B4E48B839C8346
:100B3000AD83BE8326E636E646E655E46B817C81CE
:100B40008D819E81B9D2DC01CB018F839887A987E3
:100B5000BA8720E030E040E85FE36F8178858985DF
:100B60009A855CD188232CF481E090E09C878B8768
:100B70003BC020E03FEF4FE757E46F8178858985E0
:100B80009A8596D218163CF520E030E040E251E418
:100B90006B817C818D819E818FD2DC01CB01BC0178
:100BA000CD01A8D1DC01CB019C878B870FC080E7EA
:100BB00091E09E878D878D859E850197F1F79E87B1
:100BC0008D878B859C8501979C878B878B859C85E2
:100BD000892B69F713C06F81788589859A858AD1B9
:100BE000DC01CB019C878B878B859C85988B8F87BD
:100BF0008F8598890197F1F7988B8F878AE590E028
:100C000003DD80E090E0AAE7B4E4898B9A8BAB8B9C
:100C1000BC8B26E636E646E655E469897A898B89F7
:100C20009C894AD2DC01CB018D8B9E8BAF8BB88F18
:100C300020E030E040E85FE36D897E898F89988D00
:100C4000EDD088232CF481E090E09A8F898F3BC00F
:100C500020E03FEF4FE757E46D897E898F89988DBB
:100C600027D218163CF520E030E040E251E46989D3
:100C70007A898B899C8920D2DC01CB01BC01CD0112
:100C800039D1DC01CB019A8F898F0FC080E791E0C9
:100C90009C8F8B8F8B8D9C8D0197F1F79C8F8B8F09
:100CA000898D9A8D01979A8F898F898D9A8D892B3D
:100CB00069F713C06D897E898F89988D1BD1DC01FE
:100CC000CB019A8F898F898D9A8D9E8F8D8F8D8D77
:100CD0009E8D0197F1F79E8F8D8F2F8D38A144E166
:100CE000429FC001439F900D112498A38F8F8F8D39
:100CF00098A179DC89819A81F4DCA0960FB6F894EA
:100D0000DEBF0FBECDBFDF91CF9108951F920F922E
:100D100000905F000F92112400905B000F922F93C0
:100D20003F934F935F936F937F938F939F93AF9373
:100D3000BF93EF93FF93CF93DF93CDB7DEB786ECEE
:100D400090E0FC01808180930B0286EC90E0209182
:100D50000B02FC01208380910B02813319F481E0A6
:100D600090E0C0DE80910B02823319F482E090E0C3
:100D7000B9DE80910B02833319F483E090E0B2DE98
:100D800080910B02843319F484E090E0ABDE809113
:100D90000B02853319F485E090E0A4DE80910B020C
:100DA000863319F486E090E09DDE80910B02873354
:100DB00019F487E090E096DE80910B02883319F4F5
:100DC00088E090E08FDEDF91CF91FF91EF91BF91AE
:100DD000AF919F918F917F916F915F914F913F91D3
:100DE0002F910F9000925B000F9000925F000F9088
:100DF0001F901895CF93DF93CDB7DEB7F89420DA24
:100E00004EDC13DC29DA43DA7894DF91CF91089530
:100E1000CF93DF93CDB7DEB7EDDFFFCFD4D008F4AB
:100E200081E008950CD00AC102D140F0F9D030F031
:100E300021F45F3F19F0EBC0511134C1EEC00FD166
:100E400098F39923C9F35523B1F3951B550BBB2791
:100E5000AA2762177307840738F09F5F5F4F220F3E
:100E6000331F441FAA1FA9F333D00E2E3AF0E0E837
:100E700030D091505040E695001CCAF729D0FE2F83
:100E800027D0660F771F881FBB1F26173707480715
:100E9000AB07B0E809F0BB0B802DBF01FF279358CB
:100EA0005F4F2AF09E3F510568F0B1C0FBC05F3F25
:100EB000ECF3983EDCF3869577956795B795F795B3
:100EC0009F5FC9F7880F911D9695879597F90895AB
:100ED000E1E0660F771F881FBB1F62177307840747
:100EE000BA0720F0621B730B840BBA0BEE1F88F756
:100EF000E0950895BCD088F09F5790F0B92F9927BE
:100F0000B751A0F0D1F0660F771F881F991F1AF014
:100F1000BA95C9F712C0B13081F0C3D0B1E00895DD
:100F2000C0C0672F782F8827B85F39F0B93FCCF35E
:100F3000869577956795B395D9F73EF4909580950A
:100F4000709561957F4F8F4F9F4F0895E89409C02A
:100F500097FB3EF490958095709561957F4F8F4FEC
:100F60009F4F9923A9F0F92F96E9BB279395F69502
:100F7000879577956795B795F111F8CFFAF4BB0F80
:100F800011F460FF1BC06F5F7F4F8F4F9F4F16C0E4
:100F9000882311F096E911C0772321F09EE8872F6E
:100FA000762F05C0662371F096E8862F70E060E02A
:100FB0002AF09A95660F771F881FDAF7880F9695A3
:100FC000879597F90895990F0008550FAA0BE0E847
:100FD000FEEF16161706E807F907C0F012161306FB
:100FE000E407F50798F0621B730B840B950B39F43B
:100FF0000A2661F0232B242B252B21F408950A26A1
:1010000009F4A140A6958FEF811D811D089597F9E0
:101010009F6780E870E060E008959FEF80EC08959E
:1010200000240A94161617061806090608950024C7
:101030000A9412161306140605060895092E039441
:10104000000C11F4882352F0BB0F40F4BF2B11F4B5
:1010500060FF04C06F5F7F4F8F4F9F4F089557FD14
:101060009058440F551F59F05F3F71F04795880F16
:1010700097FB991F61F09F3F79F0879508951216AD
:1010800013061406551FF2CF4695F1DF08C0161659
:1010900017061806991FF1CF86957105610508940A
:1010A0000895E894BB2766277727CB0197F9089521
:1010B0008ADF08F48FEF08950BD0C0CFB1DF28F09E
:1010C000B6DF18F0952309F0A2CFA7CF1124EACFFD
:1010D000C6DFA0F3959FD1F3950F50E0551F629F97
:1010E000F001729FBB27F00DB11D639FAA27F00D81
:1010F000B11DAA1F649F6627B00DA11D661F829FA8
:101100002227B00DA11D621F739FB00DA11D621F8C
:10111000839FA00D611D221F749F3327A00D611DA9
:10112000231F849F600D211D822F762F6A2F11248B
:101130009F5750408AF0E1F088234AF0EE0FFF1FDE
:10114000BB1F661F771F881F91505040A9F79E3F15
:10115000510570F05CCFA6CF5F3FECF3983EDCF317
:10116000869577956795B795F795E7959F5FC1F752
:10117000FE2B880F911D9695879597F90895F89401
:02118000FFCF9F
:00000001FF
