:1000000071C000008FC000008DC000008BC00000D8
:1000100089C0000084C1000055C1000083C00000F9
:1000200081C000007FC000007DC000007BC00000D8
:1000300079C0000077C0000075C0000073C00000E8
:1000400071C000006FC000006DC000006BC00000F8
:1000500069C0000067C0000065C0000063C0000008
:1000600061C000005FC000005DC000005BC0000018
:1000700059C0000057C0000055C0000053C0000028
:1000800051C000004FC000004DC000004BC0000038
:1000900049C0000047C0000045C0000043C0000048
:1000A00041C000003FC000003DC000003BC0000058
:1000B00039C0000037C0000035C0000033C0000068
:1000C00031C000002FC000002DC000002BC0000078
:1000D00029C0000027C0000025C0000023C0000088
:1000E00021C0000011241FBECFEFD1E2DEBFCDBF83
:1000F00000E00CBF12E0A0E0B2E0E0ECF8E100E0CC
:100100000BBF02C007900D92A030B107D9F722E0D3
:10011000A0E0B2E001C01D92A830B207E1F7ECD236
:100120000C945E0C6DCFCF93DF93CDB7DEB781E239
:1001300090E021E230E0F90120812F60FC01208372
:1001400082E290E022E230E0F9012081207FFC0190
:1001500020838AE091E02AE031E0F90120812861E2
:10016000FC0120838BE091E02BE031E0F90120815C
:100170002861FC012083DF91CF910895CF93DF9315
:10018000CDB7DEB78DE290E02DE230E0F9012081BD
:100190002F7EFC0120838EE290E02EE230E0F90118
:1001A00020812061FC012083DF91CF910895CF93BE
:1001B000DF93CDB7DEB78DE290E02DE230E0F901BC
:1001C00020812F7DFC0120838EE290E02EE230E042
:1001D000F90120812062FC012083DF91CF910895F5
:1001E000CF93DF93CDB7DEB787E290E027E230E030
:1001F000F9012081276FFC01208388E290E028E24A
:1002000030E0F90120812078FC012083DF91CF913B
:100210000895CF93DF93CDB7DEB780E390E0FC0184
:10022000108281E390E0FC01108287E091E0FC0104
:10023000108288E091E0FC011082DF91CF91089557
:10024000CF93DF93CDB7DEB76EDF98DFB0DFC8DFC7
:10025000E0DFDF91CF910895CF93DF93CDB7DEB785
:10026000F8948AE690E02AE630E0F90120812260E5
:10027000FC0120838DE390E02DE330E0F901208143
:100280002061FC0120837894DF91CF910895CF9372
:10029000DF93CDB7DEB7F8948AE690E02AE630E047
:1002A000F90120812860FC0120838DE390E02DE39B
:1002B00030E0F90120812062FC0120837894DF91F5
:1002C000CF9108951F920F9200905F000F9211241A
:1002D0008F939F93AF93BF93CF93DF93CDB7DEB749
:1002E0008091040290910502A0910602B09107024C
:1002F0000196A11DB11D8093040290930502A09365
:100300000602B0930702DF91CF91BF91AF919F9109
:100310008F910F9000925F000F901F9018951F9281
:100320000F9200905F000F9211248F939F93AF93D1
:10033000BF93CF93DF93CDB7DEB78091000290914A
:100340000102A0910202B09103020196A11DB11D0C
:100350008093000290930102A0930202B0930302E3
:10036000DF91CF91BF91AF919F918F910F900092AC
:100370005F000F901F901895CF93DF931F921F92ED
:10038000CDB7DEB78A8319828A818F708A8382E231
:1003900090E0FC01808189838981807F89839981B4
:1003A0008A81892B898382E290E02981FC01208364
:1003B0000F900F90DF91CF910895CF93DF93CDB73A
:1003C000DEB786E0D9DFDF91CF910895CF93DF9339
:1003D000CDB7DEB785E0D0DFDF91CF910895CF9321
:1003E000DF93CDB7DEB78AE0C7DFDF91CF91089505
:1003F000CF93DF93CDB7DEB780E0BEDFDF91CF9143
:100400000895CF93DF93CDB7DEB72A970FB6F89450
:10041000DEBF0FBECDBF9A87898719821A821B82E1
:100420001C821D821E821F82188689859A85CC01B6
:10043000A0E0B0E0BC01CD010E94450BDC01CB0186
:1004400028E431EE42E850E4BC01CD010E94B10A3B
:10045000DC01CB0189839A83AB83BC8369817A8178
:100460008B819C810E94190BDC01CB01CC01A0E0A7
:10047000B0E08D839E83AF83B88710920402109200
:1004800005021092060210920702109200021092CA
:100490000102109202021092030220910402309194
:1004A0000502409106025091070271E08D819E8104
:1004B000AF81B885281739074A075B0708F470E051
:1004C00020910002309101024091020250910302FA
:1004D00061E08D819E81AF81B885281739074A0771
:1004E0005B0708F460E0872F862B882309F001C0A2
:1004F000D4CF7EDF2A960FB6F894DEBF0FBECDBFF5
:10050000DF91CF910895CF93DF93CDB7DEB72A97D0
:100510000FB6F894DEBF0FBECDBF9A8789871982C8
:100520001A821B821C821D821E821F821886898568
:100530009A85CC01A0E0B0E0BC01CD010E94450B42
:10054000DC01CB0125EE30ED4AEA50E4BC01CD01DF
:100550000E94B10ADC01CB0189839A83AB83BC83FF
:1005600069817A818B819C810E94190BDC01CB010E
:100570008D839E83AF83B887109204021092050288
:1005800010920602109207021092000210920102CD
:10059000109202021092030220910402309105028F
:1005A000409106025091070271E08D819E81AF81DA
:1005B000B88582179307A407B50708F070E020916B
:1005C000000230910102409102025091030261E069
:1005D0008D819E81AF81B88582179307A407B507E7
:1005E00008F060E0872F862B882309F001C0D4CF64
:1005F000FFDE2A960FB6F894DEBF0FBECDBFDF91A7
:10060000CF910895CF93DF931F921F92CDB7DEB79E
:100610009A838983D2DE89819A8175DF0F900F904A
:10062000DF91CF910895CF93DF931F921F92CDB7A3
:10063000DEB79A838983CADE89819A81E2DE0F90D0
:100640000F90DF91CF910895CF93DF931F921F9268
:10065000CDB7DEB79A838983C2DE89819A81D1DEE4
:100660000F900F90DF91CF910895CF93DF93CDB787
:10067000DEB781E291E0FC01108285E291E02FEF8C
:10068000FC01208384E291E021E0FC01208389E2E7
:1006900091E0FC01108288E291E02FEFFC012083C1
:1006A0008BE291E0FC0110828AE291E02FEFFC01E5
:1006B00020838DE291E0FC0110828CE291E02FEF2B
:1006C000FC01208380E291E029EAFC01208381E2A1
:1006D00091E02BE0FC012083DF91CF910895CF932F
:1006E000DF93CDB7DEB7F894ABDDBFDFB5DDCFDD8F
:1006F0007894DF91CF9108950F931F93CF93DF9359
:10070000CDB7DEB7CA59D1090FB6F894DEBF0FBE18
:10071000CDBFE5DF88EC90E075DF6ADE80E090E039
:10072000AAE7B4E489839A83AB83BC8326E636E6E2
:1007300046E655E469817A818B819C810E94FB0B9E
:10074000DC01CB018D839E83AF83B88720E030E04E
:1007500040E85FE36D817E818F819885FED6882396
:100760002CF481E090E09A8789873DC020E03FEF3C
:100770004FE757E46D817E818F8198850E94F70B4A
:10078000181644F520E030E040E251E469817A81B6
:100790008B819C810E94FB0BDC01CB01BC01CD0154
:1007A00048D7DC01CB019A8789870FC080E791E0A9
:1007B0009C878B878B859C850197F1F79C878B871E
:1007C00089859A8501979A87898789859A85892B52
:1007D00069F713C06D817E818F8198852AD7DC01EE
:1007E000CB019A87898789859A859E878D878D8594
:1007F0009E850197F1F79E878D878AE590E013DF4C
:10080000F7DD80E090E0AAE7B4E48F87988BA98BAE
:10081000BA8B26E636E646E655E46F8578898989FF
:100820009A89E9D7DC01CB018B8B9C8BAD8BBE8B7E
:1008300020E030E040E85FE36B897C898D899E8908
:100840008CD688232CF481E090E0988F8F8B3BC06E
:1008500020E03FEF4FE757E46B897C898D899E89C3
:10086000C6D718163CF520E030E040E251E46F8531
:10087000788989899A89BFD7DC01CB01BC01CD0178
:10088000D8D6DC01CB01988F8F8B0FC080E791E029
:100890009A8F898F898D9A8D0197F1F79A8F898F19
:1008A0008F89988D0197988F8F8B8F89988D892B41
:1008B00069F713C06B897C898D899E89BAD6DC0162
:1008C000CB01988F8F8B8F89988D9C8F8B8F8B8D81
:1008D0009C8D0197F1F79C8F8B8F88EC90E092DED6
:1008E00080E090E0AAE7B4E48D8F9E8FAF8FB8A32D
:1008F00026E636E646E655E46D8D7E8D8F8D98A111
:100900007AD7DC01CB0189A39AA3ABA3BCA320E0D7
:1009100030E040E85FE369A17AA18BA19CA11DD6DC
:1009200088232CF481E090E09EA38DA33BC020E0BF
:100930003FEF4FE757E469A17AA18BA19CA157D75C
:1009400018163CF520E030E040E251E46D8D7E8DDC
:100950008F8D98A150D7DC01CB01BC01CD0169D6A8
:10096000DC01CB019EA38DA30FC080E791E098A787
:100970008FA38FA198A50197F1F798A78FA38DA1B9
:100980009EA101979EA38DA38DA19EA1892B69F79E
:1009900013C069A17AA18BA19CA14BD6DC01CB012C
:1009A0009EA38DA38DA19EA19AA789A789A59AA58B
:1009B0000197F1F79AA789A78AE590E045DE18DD4F
:1009C00080E090E0AAE7B4E48BA79CA7ADA7BEA700
:1009D00026E636E646E655E46BA57CA58DA59EA5E4
:1009E0000AD7DC01CB018FA798ABA9ABBAAB20E04B
:1009F00030E040E85FE36FA578A989A99AA9ADD551
:100A000088232CF481E090E09CAB8BAB3BC020E0D2
:100A10003FEF4FE757E46FA578A989A99AA9E7D6D0
:100A200018163CF520E030E040E251E46BA57CA5CF
:100A30008DA59EA5E0D6DC01CB01BC01CD01F9D589
:100A4000DC01CB019CAB8BAB0FC080E791E09EAB90
:100A50008DAB8DA99EA90197F1F79EAB8DAB8BA9AC
:100A60009CA901979CAB8BAB8BA99CA9892B69F79F
:100A700013C06FA578A989A99AA9DBD5DC01CB01A0
:100A80009CAB8BAB8BA99CA998AF8FAB8FA998AD72
:100A90000197F1F798AF8FAB88EC90E0B3DDA8DC5D
:100AA0008AE590E0D1DDA4DC80E090E0AAE7B4E440
:100AB00089AF9AAFABAFBCAF26E636E646E655E463
:100AC00069AD7AAD8BAD9CAD96D6DC01CB019E01B4
:100AD000235C3F4FF90180839183A283B38320E09D
:100AE00030E040E85FE3CE01CD96FC01608171818A
:100AF0008281938132D588234CF4CE018F5B9F4F46
:100B000021E030E0FC013183208363C020E03FEF2F
:100B10004FE757E4CE01CD96FC016081718182815F
:100B2000938165D618160CF044C020E030E040E216
:100B300051E469AD7AAD8BAD9CAD5DD6DC01CB01E6
:100B40008E010F5B1F4FBC01CD0173D5DC01CB01C2
:100B5000F8019183808324C0CE018D5B9F4F20E7F5
:100B600031E0FC0131832083CE018D5B9F4FFC017E
:100B7000808191810197F1F79E012D5B3F4FF90133
:100B800091838083CE018F5B9F4F9E012F5B3F4FF0
:100B9000F9012081318121503109FC013183208309
:100BA000CE018F5B9F4FFC0180819181892BA1F643
:100BB0002AC08E010F5B1F4FCE01CD96FC016081D4
:100BC00071818281938135D5DC01CB01F80191835C
:100BD0008083CE018B5B9F4F9E012F5B3F4FF901BE
:100BE00020813181FC0131832083CE018B5B9F4FBB
:100BF000FC01808191810197F1F79E012B5B3F4FB2
:100C0000F9019183808388EC90E0FCDCF1DB8AE5DC
:100C100090E01ADDEDDB9E01295B3F4F80E090E024
:100C2000AAE7B4E4F90180839183A283B3838E01A0
:100C3000055B1F4FCE01895B9F4F26E636E646E6F1
:100C400055E4FC016081718182819381D4D5DC01FE
:100C5000CB01F80180839183A283B383CE01855BAE
:100C60009F4F20E030E040E85FE3FC01608171814C
:100C70008281938172D488234CF4CE01815B9F4F93
:100C800021E030E0FC013183208369C0CE01855B27
:100C90009F4F20E03FEF4FE757E4FC0160817181F7
:100CA00082819381A4D518160CF048C0CE01895BCF
:100CB0009F4F20E030E040E251E4FC01608171810F
:100CC0008281938198D5DC01CB018E01015B1F4F9E
:100CD000BC01CD01AED4DC01CB01F801918380834E
:100CE00024C0CE018F5A9F4F20E731E0FC013183B1
:100CF0002083CE018F5A9F4FFC0180819181019703
:100D0000F1F79E012F5A3F4FF90191838083CE0165
:100D1000815B9F4F9E01215B3F4FF9012081318113
:100D200021503109FC0131832083CE01815B9F4F2B
:100D3000FC0180819181892BA1F62BC08E01015B82
:100D40001F4FCE01855B9F4FFC01608171818281C5
:100D500093816FD4DC01CB01F80191838083CE01B4
:100D60008D5A9F4F9E01215B3F4FF90120813181B8
:100D7000FC0131832083CE018D5A9F4FFC0180817D
:100D800091810197F1F79E012D5A3F4FF90191830F
:100D9000808388EC90E036DC2BDB8AE590E054DC45
:100DA00027DB9E012B5A3F4F80E090E0AAE7B4E496
:100DB000F90180839183A283B3838E01075A1F4F69
:100DC000CE018B5A9F4F26E636E646E655E4FC01F7
:100DD00060817181828193810ED5DC01CB01F801A4
:100DE00080839183A283B383CE01875A9F4F20E0F3
:100DF00030E040E85FE3FC01608171818281938192
:100E0000ACD388234CF4CE01835A9F4F21E030E0CD
:100E1000FC013183208369C0CE01875A9F4F20E0B7
:100E20003FEF4FE757E4FC0160817181828193813C
:100E3000DED418160CF048C0CE018B5A9F4F20E02C
:100E400030E040E251E4FC01608171818281938154
:100E5000D2D4DC01CB018E01035A1F4FBC01CD015E
:100E6000E8D3DC01CB01F8019183808324C0CE015B
:100E7000815A9F4F20E731E0FC0131832083CE016E
:100E8000815A9F4FFC01808191810197F1F79E016A
:100E9000215A3F4FF90191838083CE01835A9F4F9E
:100EA0009E01235A3F4FF9012081318121503109A0
:100EB000FC0131832083CE01835A9F4FFC01808146
:100EC0009181892BA1F62BC08E01035A1F4FCE01B1
:100ED000875A9F4FFC016081718182819381A9D3E0
:100EE000DC01CB01F80191838083CE018F599F4FA4
:100EF0009E01235A3F4FF90120813181FC0131834A
:100F00002083CE018F599F4FFC01808191810197F1
:100F1000F1F79E012F593F4FF9019183808388ECAF
:100F200090E070DB65DA8AE590E07DDB61DA9E01B6
:100F30002D593F4F80E090E0AAE7B4E4F9018083A7
:100F40009183A283B3838E0109591F4FCE018D591E
:100F50009F4F26E636E646E655E4FC016081718146
:100F60008281938148D4DC01CB01F8018083918395
:100F7000A283B383CE0189599F4F20E030E040E83F
:100F80005FE3FC016081718182819381E6D28823D5
:100F90004CF4CE0185599F4F21E030E0FC013183B4
:100FA000208369C0CE0189599F4F20E03FEF4FE772
:100FB00057E4FC01608171818281938118D41816F5
:100FC0000CF048C0CE018D599F4F20E030E040E248
:100FD00051E4FC0160817181828193810CD4DC0138
:100FE000CB018E0105591F4FBC01CD0122D3DC017D
:100FF000CB01F8019183808324C0CE0183599F4F98
:1010000020E731E0FC0131832083CE0183599F4FDB
:10101000FC01808191810197F1F79E0123593F4F97
:10102000F90191838083CE0185599F4F9E012559F7
:101030003F4FF9012081318121503109FC01318379
:101040002083CE0185599F4FFC0180819181892B9E
:10105000A1F62BC08E0105591F4FCE0189599F4F14
:10106000FC016081718182819381E3D2DC01CB013B
:10107000F80191838083CE0181599F4F9E012559AC
:101080003F4FF90120813181FC0131832083CE0162
:1010900081599F4FFC01808191810197F1F79E0159
:1010A00021593F4FF9019183808388EC90E0AADABF
:1010B0009FD98AE590E0B7DA9BD99E012F583F4F20
:1010C00080E090E0AAE7B4E4F90180839183A283F1
:1010D000B3838E010B581F4FCE018F589F4F26E6CA
:1010E00036E646E655E4FC01608171818281938198
:1010F00082D3DC01CB01F80180839183A283B38387
:10110000CE018B589F4F20E030E040E85FE3FC01C8
:10111000608171818281938120D288234CF4CE0139
:1011200087589F4F21E030E0FC013183208369C064
:10113000CE018B589F4F20E03FEF4FE757E4FC0173
:10114000608171818281938152D318160CF048C05E
:10115000CE018F589F4F20E030E040E251E4FC0187
:10116000608171818281938146D3DC01CB018E0144
:1011700007581F4FBC01CD015CD2DC01CB01F80147
:101180009183808324C0CE0185589F4F20E731E0B2
:10119000FC0131832083CE0185589F4FFC01808163
:1011A00091810197F1F79E0125583F4FF9019183F5
:1011B0008083CE0187589F4F9E0127583F4FF901EA
:1011C0002081318121503109FC0131832083CE01FE
:1011D00087589F4FFC0180819181892BA1F62BC0FC
:1011E0008E0107581F4FCE018B589F4FFC01608125
:1011F0007181828193811DD2DC01CB01F801918341
:101200008083CE0183589F4F9E0127583F4FF9019D
:1012100020813181FC0131832083CE0183589F4F8F
:10122000FC01808191810197F1F79E0123583F4F86
:10123000F9019183808388EC90E0E4D99E012158E4
:101240003F4F80E090E0AAE7B4E4F9018083918306
:10125000A283B3838E010D571F4FCE0181589F4F3C
:1012600026E636E646E655E4FC016081718182811E
:101270009381C1D2DC01CB01F80180839183A283E9
:10128000B383CE018D579F4F20E030E040E85FE30D
:10129000FC0160817181828193815FD188234CF44C
:1012A000CE0189579F4F21E030E0FC01318320833C
:1012B00069C0CE018D579F4F20E03FEF4FE757E4C5
:1012C000FC01608171818281938191D218160CF0AA
:1012D00048C0CE0181589F4F20E030E040E251E409
:1012E000FC01608171818281938185D2DC01CB0117
:1012F0008E0109571F4FBC01CD019BD1DC01CB01F1
:10130000F8019183808324C0CE0187579F4F20E747
:1013100031E0FC0131832083CE0187579F4FFC01D0
:10132000808191810197F1F79E0127573F4FF90185
:1013300091838083CE0189579F4F9E0129573F4F4C
:10134000F9012081318121503109FC013183208351
:10135000CE0189579F4FFC0180819181892BA1F695
:101360002BC08E0109571F4FCE018D579F4FFC0197
:1013700060817181828193815CD1DC01CB01F801B4
:1013800091838083CE0185579F4F9E0129573F4F00
:10139000F90120813181FC0131832083CE01855701
:1013A0009F4FFC01808191810197F1F79E012557A4
:1013B0003F4FF901918380838AE590E034D99E0103
:1013C00023573F4F80E090E0AAE7B4E4F90180831F
:1013D0009183A283B3838E010F561F4FCE01835793
:1013E0009F4F26E636E646E655E4FC0160817181B2
:1013F0008281938100D2DC01CB01F801808391834B
:10140000A283B383CE018F569F4F20E030E040E8A7
:101410005FE3FC0160817181828193819ED088238A
:101420004CF4CE018B569F4F21E030E0FC0131831C
:10143000208369C0CE018F569F4F20E03FEF4FE7DA
:1014400057E4FC016081718182819381D0D11816AB
:101450000CF048C0CE0183579F4F20E030E040E2BF
:1014600051E4FC016081718182819381C4D1DC01EE
:10147000CB018E010B561F4FBC01CD01DAD0DC0130
:10148000CB01F8019183808324C0CE0189569F4F00
:1014900020E731E0FC0131832083CE0189569F4F44
:1014A000FC01808191810197F1F79E0129563F4F00
:1014B000F90191838083CE018B569F4F9E012B565D
:1014C0003F4FF9012081318121503109FC013183E5
:1014D0002083CE018B569F4FFC0180819181892B07
:1014E000A1F62BC08E010B561F4FCE018F569F4F7A
:1014F000FC0160817181828193819BD0DC01CB01F1
:10150000F80191838083CE0187569F4F9E012B5611
:101510003F4FF90120813181FC0131832083CE01CD
:1015200087569F4FFC01808191810197F1F79E01C1
:1015300027563F4FF901918380830E94F80180E094
:1015400090E0C656DF4F0FB6F894DEBF0FBECDBF9A
:10155000DF91CF911F910F910895D4D008F481E0CD
:1015600008950CD00AC102D140F0F9D030F021F436
:101570005F3F19F0EBC0511134C1EEC00FD198F3A9
:101580009923C9F35523B1F3951B550BBB27AA2704
:1015900062177307840738F09F5F5F4F220F331F76
:1015A000441FAA1FA9F333D00E2E3AF0E0E830D042
:1015B00091505040E695001CCAF729D0FE2F27D045
:1015C000660F771F881FBB1F261737074807AB0713
:1015D000B0E809F0BB0B802DBF01FF2793585F4F88
:1015E0002AF09E3F510568F0B1C0FBC05F3FECF3AD
:1015F000983EDCF3869577956795B795F7959F5F4D
:10160000C9F7880F911D9695879597F90895E1E0A0
:10161000660F771F881FBB1F621773078407BA07FF
:1016200020F0621B730B840BBA0BEE1F88F7E0955A
:101630000895BCD088F09F5790F0B92F9927B751E3
:10164000A0F0D1F0660F771F881F991F1AF0BA9586
:10165000C9F712C0B13081F0C3D0B1E00895C0C065
:10166000672F782F8827B85F39F0B93FCCF386957C
:1016700077956795B395D9F73EF4909580957095D9
:1016800061957F4F8F4F9F4F0895E89409C097FB56
:101690003EF490958095709561957F4F8F4F9F4F49
:1016A0009923A9F0F92F96E9BB279395F69587958D
:1016B00077956795B795F111F8CFFAF4BB0F11F450
:1016C00060FF1BC06F5F7F4F8F4F9F4F16C08823F7
:1016D00011F096E911C0772321F09EE8872F762F2D
:1016E00005C0662371F096E8862F70E060E02AF06E
:1016F0009A95660F771F881FDAF7880F969587955A
:1017000097F90895990F0008550FAA0BE0E8FEEF2E
:1017100016161706E807F907C0F012161306E407B5
:10172000F50798F0621B730B840B950B39F40A26AE
:1017300061F0232B242B252B21F408950A2609F48C
:10174000A140A6958FEF811D811D089597F99F6790
:1017500080E870E060E008959FEF80EC0895002439
:101760000A941616170618060906089500240A9406
:1017700012161306140605060895092E0394000C8C
:1017800011F4882352F0BB0F40F4BF2B11F460FF1B
:1017900004C06F5F7F4F8F4F9F4F089557FD905844
:1017A000440F551F59F05F3F71F04795880F97FB25
:1017B000991F61F09F3F79F08795089512161306DF
:1017C0001406551FF2CF4695F1DF08C0161617060E
:1017D0001806991FF1CF8695710561050894089543
:1017E000E894BB2766277727CB0197F908958ADF0E
:1017F00008F48FEF08950BD0C0CFB1DF28F0B6DF2B
:1018000018F0952309F0A2CFA7CF1124EACFC6DFA5
:10181000A0F3959FD1F3950F50E0551F629FF00103
:10182000729FBB27F00DB11D639FAA27F00DB11D5C
:10183000AA1F649F6627B00DA11D661F829F2227E5
:10184000B00DA11D621F739FB00DA11D621F839F6C
:10185000A00D611D221F749F3327A00D611D231F42
:10186000849F600D211D822F762F6A2F11249F5790
:1018700050408AF0E1F088234AF0EE0FFF1FBB1FB3
:10188000661F771F881F91505040A9F79E3F510552
:1018900070F05CCFA6CF5F3FECF3983EDCF386950B
:1018A00077956795B795F795E7959F5FC1F7FE2BFD
:1018B000880F911D9695879597F90895F894FFCF15
:00000001FF
