:1000000071C000008FC000008DC000008BC00000D8
:1000100089C0000084C1000055C1000083C00000F9
:1000200081C000007FC000007DC000007BC00000D8
:1000300079C0000077C0000075C0000073C00000E8
:1000400071C000006FC000006DC000006BC00000F8
:1000500069C0000067C0000065C0000063C0000008
:1000600061C000009DC600005DC000005BC00000D4
:1000700059C0000057C0000055C0000053C0000028
:1000800051C000004FC000004DC000004BC0000038
:1000900049C0000047C0000045C0000043C0000048
:1000A00041C000003FC000003DC000003BC0000058
:1000B00039C0000037C0000035C0000033C0000068
:1000C00031C000002FC000002DC000002BC0000078
:1000D00029C0000027C0000025C0000023C0000088
:1000E00021C0000011241FBECFEFD1E2DEBFCDBF83
:1000F00000E00CBF12E0A0E0B2E0E2E0F2E100E0DC
:100100000BBF02C007900D92A030B107D9F722E0D3
:10011000A0E0B2E001C01D92A231B207E1F7B4D66F
:100120000C94FF086DCFCF93DF93CDB7DEB781E29C
:1001300090E021E230E0F90120812F60FC01208372
:1001400082E290E022E230E0F9012081207FFC0190
:1001500020838AE091E02AE031E0F90120812861E2
:10016000FC0120838BE091E02BE031E0F90120815C
:100170002861FC012083DF91CF910895CF93DF9315
:10018000CDB7DEB78DE290E02DE230E0F9012081BD
:100190002F7EFC0120838EE290E02EE230E0F90118
:1001A00020812061FC012083DF91CF910895CF93BE
:1001B000DF93CDB7DEB78DE290E02DE230E0F901BC
:1001C00020812F7DFC0120838EE290E02EE230E042
:1001D000F90120812062FC012083DF91CF910895F5
:1001E000CF93DF93CDB7DEB787E290E027E230E030
:1001F000F9012081276FFC01208388E290E028E24A
:1002000030E0F90120812078FC012083DF91CF913B
:100210000895CF93DF93CDB7DEB780E390E0FC0184
:10022000108281E390E0FC01108287E091E0FC0104
:10023000108288E091E0FC011082DF91CF91089557
:10024000CF93DF93CDB7DEB76EDF98DFB0DFC8DFC7
:10025000E0DFDF91CF910895CF93DF93CDB7DEB785
:10026000F8948AE690E02AE630E0F90120812260E5
:10027000FC0120838DE390E02DE330E0F901208143
:100280002061FC0120837894DF91CF910895CF9372
:10029000DF93CDB7DEB7F8948AE690E02AE630E047
:1002A000F90120812860FC0120838DE390E02DE39B
:1002B00030E0F90120812062FC0120837894DF91F5
:1002C000CF9108951F920F9200905F000F9211241A
:1002D0008F939F93AF93BF93CF93DF93CDB7DEB749
:1002E0008091040290910502A0910602B09107024C
:1002F0000196A11DB11D8093040290930502A09365
:100300000602B0930702DF91CF91BF91AF919F9109
:100310008F910F9000925F000F901F9018951F9281
:100320000F9200905F000F9211248F939F93AF93D1
:10033000BF93CF93DF93CDB7DEB78091000290914A
:100340000102A0910202B09103020196A11DB11D0C
:100350008093000290930102A0930202B0930302E3
:10036000DF91CF91BF91AF919F918F910F900092AC
:100370005F000F901F901895CF93DF931F921F92ED
:10038000CDB7DEB78A8319828A818F708A8382E231
:1003900090E0FC01808189838981807F89839981B4
:1003A0008A81892B898382E290E02981FC01208364
:1003B0000F900F90DF91CF910895CF93DF93CDB73A
:1003C000DEB786E0D9DFDF91CF910895CF93DF9339
:1003D000CDB7DEB785E0D0DFDF91CF910895CF9321
:1003E000DF93CDB7DEB780E0C7DFDF91CF9108950F
:1003F000CF93DF93CDB7DEB72A970FB6F894DEBF61
:100400000FBECDBF9A87898719821A821B821C82F0
:100410001D821E821F82188689859A85CC01A0E0E4
:10042000B0E0BC01CD01D2D5DC01CB0128E431EE36
:1004300042E850E4BC01CD0135D5DC01CB01898314
:100440009A83AB83BC8369817A818B819C8192D5AD
:10045000DC01CB01CC01A0E0B0E08D839E83AF83B3
:10046000B8871092040210920502109206021092B0
:1004700007021092000210920102109202021092E2
:10048000030220910402309105024091060250912E
:10049000070271E08D819E81AF81B88528173907E9
:1004A0004A075B0708F470E02091000230910102D6
:1004B000409102025091030261E08D819E81AF81E3
:1004C000B885281739074A075B0708F460E0872FCB
:1004D000862B882309F001C0D4CF81DF2A960FB67E
:1004E000F894DEBF0FBECDBFDF91CF910895CF93BB
:1004F000DF931F921F92CDB7DEB79A83898366DFA1
:1005000089819A8175DF0F900F90DF91CF910895C7
:10051000CF93DF93CDB7DEB781E291E0FC0110828B
:1005200085E291E02FEFFC01208384E291E021E05D
:10053000FC01208389E291E0FC01108288E291E0D5
:100540002FEFFC0120838BE291E0FC0110828AE214
:1005500091E02FEFFC0120838DE291E0FC011082FD
:100560008CE291E02FEFFC01208380E291E029EA08
:10057000FC01208381E291E02BE0FC012083DF91EC
:10058000CF910895CF93DF931F921F92CDB7DEB71F
:100590008A838A81883028F08BE790E028E0FC018C
:1005A00020838A8187708A838CE790E02A81206289
:1005B000FC0120838AE790E02AE730E0F9012081FE
:1005C0002064FC01208300008AE790E0FC01808128
:1005D000882F90E080719927892BB1F389E790E00B
:1005E000FC01808189838AE790E02AE730E0F90105
:1005F00020812061FC0120838BE790E0FC011082C8
:1006000089810F900F90DF91CF910895CF93DF9361
:10061000CDB7DEB781EC90E0FC01108280EC90E079
:10062000FC01108282EC90E026E0FC01208384EC47
:1006300090E02FE5FC01208385EC90E0FC01108226
:1006400081EC90E028E9FC012083DF91CF910895AF
:10065000CF93DF93CDB7DEB7F894F2DD59DFFCDD41
:1006600016DED4DF7894DF91CF910895CF93DF9396
:10067000CDB7DEB72A970FB6F894DEBF0FBECDBF59
:100680009A878987E5DF19821A821B821C821D8264
:100690001E821F82188689859A85CC01A0E0B0E071
:1006A000BC01CD0193D4DC01CB0125EE30ED4AEA4B
:1006B00050E4BC01CD01F6D3DC01CB0189839A83E0
:1006C000AB83BC8369817A818B819C8153D4DC01AB
:1006D000CB018D839E83AF83B88710920402109262
:1006E0000502109206021092070210920002109268
:1006F0000102109202021092030283E043DF809312
:10070000090282E03FDF80930A0281E03BDF8093B1
:100710000B021092080220910402309105024091D0
:1007200006025091070271E08D819E81AF81B885EC
:1007300082179307A407B50708F070E02091000224
:1007400030910102409102025091030261E08D81DB
:100750009E81AF81B88582179307A407B50708F07B
:1007600060E0872F862B882309F039DEC6CFCF9330
:10077000DF93CDB7DEB7EA970FB6F894DEBF0FBEB2
:10078000CDBF9AAF89AF89AD9AAD059708F0F0C09B
:1007900029AD3AAD4CEE4203C001439F900D1124A8
:1007A0008C599F4F9AAF89AF08DE89AD9AAD5EDF55
:1007B00080E090E0AAE7B4E489839A83AB83BC83AA
:1007C00026E636E646E655E469817A818B819C818E
:1007D000B3D4DC01CB018D839E83AF83B88720E047
:1007E00030E040E85FE36D817E818F81988556D34C
:1007F00088232CF481E090E09A8789873BC020E031
:100800003FEF4FE757E46D817E818F81988590D4CB
:1008100018163CF520E030E040E251E469817A812D
:100820008B819C8189D4DC01CB01BC01CD01A2D399
:10083000DC01CB019A8789870FC080E791E09C8714
:100840008B878B859C850197F1F79C878B878985A2
:100850009A8501979A87898789859A85892B69F76F
:1008600013C06D817E818F81988584D3DC01CB019B
:100870009A87898789859A859E878D878D859E85AC
:100880000197F1F79E878D878AE590E030DE80E062
:1008900090E0AAE7B4E48F87988BA98BBA8B26E601
:1008A00036E646E655E46F85788989899A8944D485
:1008B000DC01CB018B8B9C8BAD8BBE8B20E030E0C1
:1008C00040E85FE36B897C898D899E89E7D2882324
:1008D0002CF481E090E0988F8F8B3BC020E03FEFBD
:1008E0004FE757E46B897C898D899E8921D418163E
:1008F0003CF520E030E040E251E46F857889898959
:100900009A891AD4DC01CB01BC01CD0133D3DC01BF
:10091000CB01988F8F8B0FC080E791E09A8F898FE2
:10092000898D9A8D0197F1F79A8F898F8F89988D8C
:100930000197988F8F8B8F89988D892B69F713C0BA
:100940006B897C898D899E8915D3DC01CB01988FB9
:100950008F8B8F89988D9C8F8B8F8B8D9C8D019722
:10096000F1F79C8F8B8F29DD80E590E07FDEF4C06E
:1009700029E030E089AD9AADA901481B590BCA01A5
:100980009AAF89AF1ADD89AD9AAD44E1489F9001D5
:10099000499F300D1124C90169DE80E090E0AAE78B
:1009A000B4E48D8F9E8FAF8FB8A326E636E646E679
:1009B00055E46D8D7E8D8F8D98A1BED3DC01CB016A
:1009C00089A39AA3ABA3BCA320E030E040E85FE397
:1009D00069A17AA18BA19CA161D288232CF481E02A
:1009E00090E09EA38DA33BC020E03FEF4FE757E48C
:1009F00069A17AA18BA19CA19BD318163CF520E09C
:100A000030E040E251E46D8D7E8D8F8D98A194D3BE
:100A1000DC01CB01BC01CD01ADD2DC01CB019EA339
:100A20008DA30FC080E791E098A78FA38FA198A511
:100A30000197F1F798A78FA38DA19EA101979EA37F
:100A40008DA38DA19EA1892B69F713C069A17AA1FD
:100A50008BA19CA18FD2DC01CB019EA38DA38DA184
:100A60009EA19AA789A789A59AA50197F1F79AA7A8
:100A700089A78AE590E03BDD80E090E0AAE7B4E456
:100A80008BA79CA7ADA7BEA726E636E646E655E4AB
:100A90006BA57CA58DA59EA54FD3DC01CB018FA7AF
:100AA00098ABA9ABBAAB20E030E040E85FE36FA5BC
:100AB00078A989A99AA9F2D188232CF481E090E041
:100AC0009CAB8BAB3BC020E03FEF4FE757E46FA5FB
:100AD00078A989A99AA92CD318163CF520E030E012
:100AE00040E251E46BA57CA58DA59EA525D3DC0134
:100AF000CB01BC01CD013ED2DC01CB019CAB8BAB69
:100B00000FC080E791E09EAB8DAB8DA99EA90197A8
:100B1000F1F79EAB8DAB8BA99CA901979CAB8BABDE
:100B20008BA99CA9892B69F713C06FA578A989A9FE
:100B30009AA920D2DC01CB019CAB8BAB8BA99CA9E1
:100B400098AF8FAB8FA998AD0197F1F798AF8FABA6
:100B500034DC8EE690E08ADDEA960FB6F894DEBFCC
:100B60000FBECDBFDF91CF910895CF93DF93CDB767
:100B7000DEB76E970FB6F894DEBF0FBECDBF9E8F67
:100B80008D8F8D8D9E8D90930F0280930E028D8D93
:100B90009E8D059728F411DC8EE190E067DD09C099
:100BA0000CDC86E490E062DD8D8D9E8D04979E8F37
:100BB0008D8F80E090E0AAE7B4E489839A83AB83C9
:100BC000BC8326E636E646E655E469817A818B8168
:100BD0009C81B2D2DC01CB018D839E83AF83B88729
:100BE00020E030E040E85FE36D817E818F81988571
:100BF00055D188232CF481E090E09A8789873BC007
:100C000020E03FEF4FE757E46D817E818F8198852B
:100C10008FD218163CF520E030E040E251E46981C3
:100C20007A818B819C8188D2DC01CB01BC01CD0112
:100C3000A1D1DC01CB019A8789870FC080E791E0C1
:100C40009C878B878B859C850197F1F79C878B8789
:100C500089859A8501979A87898789859A85892BBD
:100C600069F713C06D817E818F81988583D1DC0106
:100C7000CB019A87898789859A859E878D878D85FF
:100C80009E850197F1F79E878D878AE590E02FDC9E
:100C900080E090E0AAE7B4E48F87988BA98BBA8BA9
:100CA00026E636E646E655E46F85788989899A898D
:100CB00043D2DC01CB018B8B9C8BAD8BBE8B20E0B8
:100CC00030E040E85FE36B897C898D899E89E6D0BE
:100CD00088232CF481E090E0988F8F8B3BC020E03C
:100CE0003FEF4FE757E46B897C898D899E8920D23D
:100CF00018163CF520E030E040E251E46F85788939
:100D000089899A8919D2DC01CB01BC01CD0132D18C
:100D1000DC01CB01988F8F8B0FC080E791E09A8F19
:100D2000898F898D9A8D0197F1F79A8F898F8F8995
:100D3000988D0197988F8F8B8F89988D892B69F764
:100D400013C06B897C898D899E8914D1DC01CB010C
:100D5000988F8F8B8F89988D9C8F8B8F8B8D9C8D8F
:100D60000197F1F79C8F8B8F2D8D3E8D44E1429F33
:100D7000C001439F900D11249E8F8D8F1EDB8D8DA2
:100D80009E8D74DC80910E0290910F02F0DC6E96C5
:100D90000FB6F894DEBF0FBECDBFDF91CF9108959F
:100DA0001F920F9200905F000F92112400905B0041
:100DB0000F922F933F934F935F936F937F938F93F4
:100DC0009F93AF93BF93EF93FF93CF93DF93CDB7F1
:100DD000DEB786EC90E0FC0180818093110286EC06
:100DE00090E020911102FC01208380911102813357
:100DF00019F481E090E0B9DE80911102823319F498
:100E000082E090E0B2DE80911102833319F483E036
:100E100090E0ABDE80911102843319F484E090E01D
:100E2000A4DE80911102853319F485E090E09DDE07
:100E300080911102863319F486E090E096DE80916D
:100E40001102873319F487E090E08FDE8091110260
:100E5000883319F488E090E088DEDF91CF91FF912C
:100E6000EF91BF91AF919F918F917F916F915F9122
:100E70004F913F912F910F9000925B000F90009245
:100E80005F000F901F901895CF93DF93CDB7DEB71B
:100E9000DFDB80E090E0DF91CF910895D4D008F4BB
:100EA00081E008950CD00AC102D140F0F9D030F0B1
:100EB00021F45F3F19F0EBC0511134C1EEC00FD1E6
:100EC00098F39923C9F35523B1F3951B550BBB2711
:100ED000AA2762177307840738F09F5F5F4F220FBE
:100EE000331F441FAA1FA9F333D00E2E3AF0E0E8B7
:100EF00030D091505040E695001CCAF729D0FE2F03
:100F000027D0660F771F881FBB1F26173707480794
:100F1000AB07B0E809F0BB0B802DBF01FF2793584A
:100F20005F4F2AF09E3F510568F0B1C0FBC05F3FA4
:100F3000ECF3983EDCF3869577956795B795F79532
:100F40009F5FC9F7880F911D9695879597F908952A
:100F5000E1E0660F771F881FBB1F621773078407C6
:100F6000BA0720F0621B730B840BBA0BEE1F88F7D5
:100F7000E0950895BCD088F09F5790F0B92F99273D
:100F8000B751A0F0D1F0660F771F881F991F1AF094
:100F9000BA95C9F712C0B13081F0C3D0B1E008955D
:100FA000C0C0672F782F8827B85F39F0B93FCCF3DE
:100FB000869577956795B395D9F73EF4909580958A
:100FC000709561957F4F8F4F9F4F0895E89409C0AA
:100FD00097FB3EF490958095709561957F4F8F4F6C
:100FE0009F4F9923A9F0F92F96E9BB279395F69582
:100FF000879577956795B795F111F8CFFAF4BB0F00
:1010000011F460FF1BC06F5F7F4F8F4F9F4F16C063
:10101000882311F096E911C0772321F09EE8872FED
:10102000762F05C0662371F096E8862F70E060E0A9
:101030002AF09A95660F771F881FDAF7880F969522
:10104000879597F90895990F0008550FAA0BE0E8C6
:10105000FEEF16161706E807F907C0F0121613067A
:10106000E407F50798F0621B730B840B950B39F4BA
:101070000A2661F0232B242B252B21F408950A2620
:1010800009F4A140A6958FEF811D811D089597F960
:101090009F6780E870E060E008959FEF80EC08951E
:1010A00000240A9416161706180609060895002447
:1010B0000A9412161306140605060895092E0394C1
:1010C000000C11F4882352F0BB0F40F4BF2B11F435
:1010D00060FF04C06F5F7F4F8F4F9F4F089557FD94
:1010E0009058440F551F59F05F3F71F04795880F96
:1010F00097FB991F61F09F3F79F08795089512162D
:1011000013061406551FF2CF4695F1DF08C01616D8
:1011100017061806991FF1CF869571056105089489
:101120000895E894BB2766277727CB0197F90895A0
:101130008ADF08F48FEF08950BD0C0CFB1DF28F01D
:10114000B6DF18F0952309F0A2CFA7CF1124EACF7C
:10115000C6DFA0F3959FD1F3950F50E0551F629F16
:10116000F001729FBB27F00DB11D639FAA27F00D00
:10117000B11DAA1F649F6627B00DA11D661F829F27
:101180002227B00DA11D621F739FB00DA11D621F0C
:10119000839FA00D611D221F749F3327A00D611D29
:1011A000231F849F600D211D822F762F6A2F11240B
:1011B0009F5750408AF0E1F088234AF0EE0FFF1F5E
:1011C000BB1F661F771F881F91505040A9F79E3F95
:1011D000510570F05CCFA6CF5F3FECF3983EDCF397
:1011E000869577956795B795F795E7959F5FC1F7D2
:1011F000FE2B880F911D9695879597F90895F89481
:02120000FFCF1E
:00000001FF
